:0C0000003EC0FECFFDCFFCCFFBCFFACFFF
:10000C00F9CFF8CFF7CFF6CFF5CFF4CFF3CFF2CFC0
:10001C00F1CFF0CFEFCFEECFEDCF1027E803640098
:10002C000A00010000100001100001003200320033
:10003C0000000000000068656C6C6F20776F726CBC
:10004C00640054454D503A25642E2564DF43004826
:10005C00554D3A25642E25642525000080C00A00E4
:10006C00040038000C0060014200020086016800A8
:10007C000000F894EE27ECBBF1E0FBBFEBBFE5BF53
:10008C008DE0A2E0BB27ED938A95E9F780E094E040
:10009C00A0E6ED930197E9F7EAE6F0E085919591FA
:1000AC00009761F0A591B59105901590BF01F001F5
:1000BC0005900D920197E1F7FB01F0CFEFE5EDBF55
:1000CC00E4E0EEBFC0E6D1E0B3C0EFE0E7BBE0E0B8
:1000DC00E8BBE4BBE6E0E5BBE0E0E1BBE2BBE3BFD1
:1000EC00E2BFEFBDEEBDEDBDECBDE7BDE6BDEBBDCA
:1000FC00EABDE9BDE8BDE2BDE5BDE4BDE3BDE9BFD8
:10010C00E5BFEAB9E0E8E8B9E0E0E0BFE6B9EDB98F
:10011C00E6BFA4E171D108952CD32597FDD300E05F
:10012C0020E030E0FE01349627D329D3A5E0B0E0DF
:10013C00FAD228D3A89887EA8A95F1F7A89AA098BA
:10014C008DE08A95F1F7989967C08BE18A95F1F764
:10015C00989B62C08BE18A95F1F700E0053098F529
:10016C002197E0E0E88310E0183010F520E030E053
:10017C00989906C00CD318F0EFEF21964EC0F8CF2B
:10018C008AE08A95F1F7989B07C0E7E0E11BA1E0B4
:10019C0073D3A881EA2BE88320E030E0989B06C05B
:1001AC00F6D218F0EFEF219638C0F8CF1F5FDCCFF6
:1001BC00E02FF0E0DE011596EA0FFB1FA881A0836B
:1001CC0021960F5FCBCFDED2AC81BB27ED81F0E067
:1001DC00AE0FBF1FEE81F0E0AE0FBF1FEF81F0E05E
:1001EC00EA0FFB1FAE2FE885EA17B1F4E0E0FE81C1
:1001FC00DF01EF81F0E0EA2BFB2BAB85BC85CDD288
:10020C00E0E0FC81DF01ED81F0E0EA2BFB2BA9851E
:10021C00BA85C3D2E0E001C0EFEF85D32D960895E7
:10022C00A8D2EA81FB81A8D2BBD276DF24960895AE
:10023C004CDFA0E6B1E0D0D0A4EFB1E00BD39DD061
:10024C00EEE6F1E099D2A0E7B1E0EADFACD234D32C
:10025C004F01A9D236D36F01ADD22ED35F01AAD2F2
:10026C0030D3E0936C01F0936D01E2E7F1E084D2BE
:10027C00EEE4F0E081D2F401A4D2F601A2D2A4D231
:10028C00A0E0A6D2E2E7F1E077D2EBE5F0E074D2A1
:10029C00F50197D2E0916C01F0916D0192D294D25C
:1002AC00A1E096D2A8EC98D2999B23C09A9902C04F
:1002BC00C29801C0C29A4814590464F46A147B04AD
:1002CC001CF4C098C39AC198A614B7041CF4C09827
:1002DC00C39AC19A8414950464F46A147B041CF4C4
:1002EC00C09AC39AC198A614B7041CF4C09AC398B8
:1002FC00C19A999904C0C298C098C398C198A0CFCC
:10030C00FFCFAA93E881E07111F0939A01C0939802
:10031C00E881E07211F0949A01C09498E881E0743D
:10032C0011F0959A01C09598E881E07811F0969AB1
:10033C0001C0969853D2929A51D292984FD284C0BF
:10034C00AA93A881DEDFE881E295E883A881D9DF52
:10035C0081E18A95F1F778C0AA93E881F0E0EA5739
:10036C00FE4FE081A981AE0FEBDFE981E0938A01BA
:10037C00E881E0938B0122960895A2E0E1DFA3E0EF
:10038C002BD2ACE0DDDFA1E0DBDFA3E025D2E0E0A7
:10039C00E0938B01E0938A010895AA93A881AA3077
:1003AC0031F0E0918C01A0918A01AE1758F0E7D1A1
:1003BC00A0918B01AF5FA0938B01CEDFA881AA30F7
:1003CC0009F442C0E0918A01EF5FE0938A01909AB0
:1003DC00A881B6DF909838C0CCD11A93A981BA8184
:1003EC00ED91A983BA831E2FE03019F0A12FD5DF30
:1003FC00F5CF188123960895AA938B9A8C9A8D9A8F
:10040C008E9A8A9A889A899A929890989198E8816B
:10041C00E0938C01E058E0938801E881E054E0938C
:10042C008901A4E1D9D1DED1DDD1DCD1A0E269DF33
:10043C0081E28A95F1F7A8E283DFA4E081DFA5E8E9
:10044C007FDFA6E07DDF99DF2196089592D166D2F9
:10045C00A7D1129652D23097F1F0A2D1C9D18F0107
:10046C00309761F00230E0E01E0770F0F801319730
:10047C008F01AA81BB811496ED93FC9391D11296B6
:10048C00BAD13197AC81A0838BD137D2FF2312F034
:10049C0087D1B1D104C084D1EFEFFFEF7ED145D22B
:1004AC004FC167D1269736D210E0AC85BD85E0E010
:1004BC00F0E073D1EA89FB893196EA8BFB8B31979B
:1004CC00E4912E2FE03009F4FEC0E12FE03031F43E
:1004DC00253211F411E001C094D1F4C0E130A1F443
:1004EC00253211F48ED1EDC012E040E000E02D3247
:1004FC0011F401E0E7C02B3211F44BE2E3C02032DF
:10050C0011F440E2DFC002C0E23039F450E013E0F5
:10051C00203311F40068D6C003C0E33009F0D2C018
:10052C00203310F02A3308F007C0AAE05A9F502D50
:10053C00E22FE0535E0FC6C0E22FE33639F468D1E8
:10054C006AD166D1A481AA936AD1BBC0E33731F4D6
:10055C006CD16DD16FD1F6D01E2F08C0E03751F49D
:10056C0064D165D167D1F9D01E2F086002600F7776
:10057C0030E02EC0E43611F0E93611F4046002C00C
:10058C00E53729F4E6E2F0E05AD115E00BC0E83586
:10059C0011F4086003C0E83709F093C0E0E3F0E021
:1005AC004ED114E002FF11C040D141D14BD1AB85EB
:1005BC00AA232AF4EA85FB855BD144D14DE2403075
:1005CC0011F01F5F01C00B7F03C02FD130D13AD186
:1005DC0000FD10C0151770F407FF08C002FF04C01F
:1005EC000B7F242F115001C020E301C020E209D160
:1005FC005150F0CF312F01FF15C0303091F003FF77
:10060C0005C0EE81FF8125911AD105C0AE81BF8155
:10061C002D91AE83BF83F5D0503009F0515031503D
:10062C00ECCF46C020E3EE81FF816BD1E887F987E0
:10063C00EE81FF81329603D1E885F985AA85BB85C9
:10064C00AE17BF0748F02F5FA885B985EA85FB85F3
:10065C00EA1BFB0BF7D0F0CF2A3328F003FF02C0C4
:10066C00295F01C0295D04FD19C0213320F4A88540
:10067C00B985119709F409C0531710F000FF01C098
:10068C0011C020E207FF0AC020E3006102FF06C090
:10069C000B7F4A93C4D0503009F05150B2D0503037
:1006AC0009F051503150A885B985129708F0BACF8E
:1006BC0000FF07C0503029F05150E0E2EA93AFD070
:1006CC00F9CF10E0F7CEAC85BD8517D12AD1649651
:1006DC000895FF92F82E26971FD1B7D0309719F4B2
:1006EC00EFEFFFEF1CC0DE011696BED08D01ADD032
:1006FC00A6D0E0E0E887E987DE011A96B5D0FDD0F8
:10070C003BD01A930A93ECE2F2E036D0DE011A9653
:10071C00C8DE9F01AE81BF81E0E0EC93F90103D10B
:10072C002A96FF90089525D0B981A881109631F0B2
:10073C00FC81EB816A8161931197E9F7EB81FC8174
:10074C002596089516D0A991B991EE27FF276D91A2
:10075C00662311F03196FBCF08950BD0AA27BB2747
:10076C00E991F9910590002011F01196FBCFFD0154
:10077C000895BA93AA930895FA93EA930895E0E042
:10078C00EA930895A09AA89AA4E6B0E063C02F5FFC
:10079C003F4F293CE0E03E070895ED93FC9308950C
:1007AC00AA81BB810895A0916E01B0916F01EAE01E
:1007BC00F0E00895A0917001B0917101EAE0F0E0D1
:1007CC00089562D0A2D0089588E083DF2C96D7CF0D
:1007DC00C3DDA2E7B1E000CEB0E03CC082E08A9578
:1007EC00F1F70895A0E38DDD81E28A95F1F7089584
:1007FC00149683D00895ED91FD913196FE93EE936E
:10080C0008952A93AD85BE85EF85F88909950895DD
:10081C00E889F98908953497E88BF98B0895AD85AB
:10082C00BE85EF85F88909950895F2DFF4CFA88984
:10083C00B989DECFEE83FF83AE81BF810895EE834D
:10084C00FF830895EA87FB870895DE011C960CD080
:10085C0054D00895109639F08AEF90E00197F1F793
:10086C00A8951197C9F708950024AF0DB01D0895F0
:10087C00F195E195F0400895EE230E2EEA2F19F034
:10088C00EE0F0A94E9F708956F2F660F660B762F1B
:10089C0008950024112490E1AA0FBB1F001C111C09
:1008AC000E1A1F0A18F40E0E1F1E01C0A1609A9595
:1008BC0099F7FD01D001089512D0EBDF0EF4D8DFCB
:1008CC000895E894B7FF04C0A095B095119668946C
:1008DC00F7FDCEDFDEDFFD010EF4CADF0895E894EC
:1008EC00F7FF02C0C5DF6894B7FF06C0A095B095AE
:1008FC00119600F8039400FA0895ED91FC9111976C
:10090C0008950590F491E02D08957A936A93FA93E3
:10091C00EA9308955A934A933A932A931A930A9313
:10092C0008955D814C813B812A811981088108954C
:00000001FF
